:1000000047C0000061C000005FC000005DC000008C
:100010005BC0000059C0000057C0000055C0000080
:1000200053C000000C94520A4FC000004DC00000A5
:100030004BC0000049C0000047C0000045C00000A0
:1000400043C0000041C000000C94A5080C94260A8F
:100050003BC0000039C0000037C0000035C00000C0
:1000600033C0000031C0000027013E01C7003E013F
:100070003E013E013E013E013E013E01D1003E01F6
:100080003E013E0139013E01F70039013E01C00049
:1000900011241FBECFEFD8E0DEBFCDBF11E0A0E03E
:1000A000B1E0EEEDF6E102C005900D92A633B10786
:1000B000D9F711E0A6E3B1E001C01D92A935B1075F
:1000C000E1F750D30C946D0B9BCF809100018F5FB3
:1000D000809300010895A0E0B0E0E1E7F0E00C9427
:1000E000220B60E072EC81E090E00E94550946D559
:1000F00080910301883671F0813661F042E350E06F
:1001000061E085E591E00E94240A80915501809389
:100110000301EECFC0E0D0E044E6F42E55E7E52E33
:1001200060E2D62E80910301833709F4AAC081369C
:1001300009F4A7C048EC50E061E085E591E00E9439
:10014000240A809155018093030160E080E0A0D5EE
:10015000BE01882777FD8095982F7BD540910301BC
:10016000552747FD5095652F752FFA01E256F10985
:10017000E431F10508F082C0EC5CFF4F0C944E0BAB
:100180002196BE01CE017ED6E092580177C021961D
:10019000882799278C1B9D0BBC0174D6F0925801BF
:1001A0006DC0219680915801853771F4CE01D7FD3D
:1001B0000196BE019595879565D684EF91E00E94E2
:1001C000990ABE01CE015ED680915801843609F0AD
:1001D00055C0002711270C1B1D0BCE01D7FD019622
:1001E00095958795B80191958195910928C021969B
:1001F00080915801853781F4BE01D7FF02C06F5F3F
:100200007F4F75956795CE013DD684EF91E00E94B2
:10021000990ABE01CE0136D680915801843671F517
:10022000002711270C1B1D0BBE01D7FF02C06F5FFB
:100230007F4F75956795719561957109C80122D6B3
:1002400084EF91E00E94990AB801C80116C0219775
:1002500080915801853719F4BE01CE0113D68091E3
:100260005801843659F4882799278C1B9D0BBC01B3
:1002700004C060E070E080E090E004D6D0925501C8
:1002800051CFCDB7DEB7E7E00C943E0BCF93DF93B1
:1002900060E072EC81E090E00E94550980910301DA
:1002A0008836B9F08136A9F042E350E062E085E596
:1002B00091E00E94240A809155018093030180916E
:1002C0005601992787FD9095909302018093010133
:1002D000E5CF6091010170910201882777FD80953B
:1002E000982FB7D4D0E280910301833709F469C015
:1002F000813609F466C048EC50E061E085E591E0A4
:100300000E94240AC0915501C0930301C03709F42B
:1003100050C02CF4C43689F0CC36D9F04FC0C33766
:1003200009F447C0C53721F0C23709F047C028C0DB
:10033000809101019091020107C08091010190918B
:100340000201919581959109BC019CD5C0935801FA
:1003500035C080915801853739F460910101709161
:10036000020180E090E08ED580915801843631F50D
:1003700060910101709102017195619571091BC035
:1003800080915801853739F460E070E08091010177
:100390009091020177D580915801843679F480914B
:1003A00001019091020160E070E0919581959109C1
:1003B00004C060E070E080E090E064D5D093550127
:1003C00092CFDF91CF9108958F929F92BF92CF925B
:1003D000DF92EF92FF920F931F93CF93DF931092D0
:1003E00002011092010160E072EC81E090E05DD7C3
:1003F00080910301883639F4812C912CE12CF12C69
:1004000010E2B12E89C08F36B9F348EC50E061E0BC
:1004100085E591E00E94240A8091550180930301B3
:10042000E7CF8F3609F4F9C042E350E063E085E599
:1004300091E00E94240A8091550180930301C090AD
:100440005601DD24C7FCD09400915701112707FD08
:1004500010958C149D0484F4809101019091020107
:1004600001969093020180930101919581959109E4
:10047000BC0108D5C1E0D0E0C814D9046CF4809167
:100480000101909102010196909302018093010174
:10049000BC01F8D4C0E0D0E0C701059680179107F1
:1004A0000CF440C0C7010597081719070CF09DC050
:1004B00060910101709102016F5F7F4F70930201A3
:1004C00060930101C130D10509F466C0209709F499
:1004D0007CC080910301823609F489C080910301B8
:1004E000803749F460E070E080E090E0CBD4109277
:1004F00002011092010180910301833749F460E009
:1005000070E080E090E0BED41092020110920101F0
:10051000B09255014601780180910301833709F0BB
:1005200080CF7BC080910101909102010196909350
:10053000020180930101C130D105C9F4BC0197FFCC
:1005400002C06F5F7F4F75956795719561957109D1
:1005500091958195910996D484EF91E0EAD78091A5
:1005600001019091020191958195910911C0209707
:1005700089F4BC0197FF02C06F5F7F4F7595679547
:1005800081D484EF91E0D5D780910101909102014F
:10059000BC0178D4780186CF22273327261B370B5E
:1005A000CB0177FD019695958795B9019195819538
:1005B000910968D484EF91E0BCD7809101019091BA
:1005C00002019195819591090DC0CB0177FD0196AE
:1005D0009595879557D484EF91E0ABD78091010131
:1005E00090910201BC014ED474CF870172CF8091EB
:1005F0000101909102010197909302018093010102
:10060000C130D10521F491958195910903C02097BE
:1006100009F064CFBC0136D461CFDF91CF911F9137
:100620000F91FF90EF90DF90CF90BF909F908F90B1
:100630000895CF93DF9360E072EC81E090E035D6CF
:1006400080910301883611F4D0E22DC08136E1F3A8
:1006500042E350E062E085E591E0F6D680915501F5
:100660008093030180915601992787FD909590937F
:10067000020180930101E4CF813609F470C048EC97
:1006800050E061E085E591E0DFD6C0915501C0936F
:100690000301C03709F45DC05CF4C436B1F0CC3658
:1006A00001F1D093550180910301833729F757C099
:1006B000C33709F44EC0C53719F0C23791F72BC0C4
:1006C000809101019091020107C0809101019091F8
:1006D0000201919581959109BC01D4D3C093580131
:1006E000E0CF80915801853769F460E470E080E0E4
:1006F00090E0C8D384EF91E01CD760E070E080E028
:1007000090E0C0D380915801843659F660EC7FEFB9
:1007100080E090E01AC080915801853769F460E06C
:1007200070E080E490E0AED384EF91E002D760E027
:1007300070E080E090E0A6D380915801843609F003
:10074000B0CF60E070E080EC9FEF9CD384EF91E04D
:10075000F0D660E070E080E090E094D3A2CFDF912B
:10076000CF9108950BD219D1BC0180E090E071D2F5
:1007700060E072EC81E090E098D5809103018936C9
:1007800039F148EC50E061E085E591E05DD680917B
:10079000550180930301823389F03CF4813369F77A
:1007A0008EE091E000D210DEE8CF833361F0843335
:1007B00021F78CE191E0F7D18EDCDFCF82E191E08F
:1007C000F2D164DDDACF85E191E0EDD132DFD5CF32
:1007D000D5D183E291E0E7D161E080E059D28DE2AA
:1007E00091E0E1C1882321F480917C008F7D03C0DA
:1007F00080917C00806280937C00089580917C00D1
:1008000090E025E0959587952A95E1F78170089508
:1008100080917A0090E036E0959587953A95E1F7DA
:1008200081700895EBDF882321F02091790030E07A
:1008300004C02091780030917900C9010895803278
:10084000B0F497E890937A0090917C00292F20646F
:10085000662311F0906C02C0922F9F77907E982BA8
:1008600090937C0080917A00806480937A00089550
:10087000A0E0B0E0EDE3F4E0E4C66B0160E0DFDFB0
:10088000C7DF8823E9F7E601EE24FF248701809182
:100890007A00806480937A00BBDF8823E9F7C2DFA7
:1008A000A0E0B0E0E80EF91E0A1F1B1F219779F7A0
:1008B000C6019695879520E4C216D10438F48E0DB2
:1008C0009F1D6C2D70E07DD6CB010CC0BC0180E07B
:1008D00090E06E0D7F1D801F911F960140E050E05B
:1008E00084D6C901CDB7DEB7E8E0C7C6A3E0B0E063
:1008F000EBE7F4E0ABC6BC0180E090E0209104019E
:100900003091050140E050E04DD6182F69837A837D
:100910009B8374DF69817A819B81882371F09B01BD
:10092000412F592FCA01B90161587F4F8F4F9F4FF7
:100930002FEF30E040E050E00DC09B01412F592FD8
:10094000CA01B90161507E4F8F4F9F4F2FEF33E0A7
:1009500040E050E04AD6C9012396E3E093C688DF21
:10096000C5CF1F93CF93DF9349DF182F80E03ADF85
:1009700086E06AE070E0F3DFEC01812F33DF9E0157
:10098000220F331F2C0F3D1F2F5F3F4F36952795AA
:10099000C901DF91CF911F910895E3CF089581E0C0
:1009A00090E06F9364E06A95F1F76F910197C9F752
:1009B00008950F931F93CF93DF931AB157985A98C6
:1009C000289AC0E0D0E0EBDF5C9AE9DF09B15C98DF
:1009D000E6DF5C9AE4DF5C9807FF11C024969E0175
:1009E00040E050E080913A0190913B01A0913C01A0
:1009F000B0913D01281739074A075B0720F31AB960
:100A0000DF91CF911F910F91089565B190E0AC01F6
:100A100041705070440F551F9C012670307053E098
:100A2000220F331F5A95E1F7242B6D7C262B25B915
:100A30002BB18870907034E0880F991F3A95E1F7D8
:100A40002F77282B2BB95C9AAADF5C98A8CFA2E05D
:100A5000B0E0ECE2F5E0F6C5182F4A8369835AD07E
:100A6000A8DFF4B005B1DAB0EBB0289869814A810B
:100A7000662311F05A9A01C05A9884B1826384B9EE
:100A8000579A413021F0812F82958F70BEDF812FE0
:100A90008F70BBDFDAB8EBB8F4B805B92296E7E09F
:100AA000EDC560E042E0D3CF61E042E0D0CF60E04E
:100AB00041E0CDCF80E197E2A0E0B0E080933A0141
:100AC00090933B01A0933C01B0933D01529A209A30
:100AD000549A8EE190E02DD583E0E9DF86E090E046
:100AE00028D583E0E4DF82E090E023D583E0DFDFF8
:100AF00082E090E01ED582E0DADF82E090E019D556
:100B000088E2CFDF88E0CDDF81E0CBDF86E0C9DFA0
:100B10008CE0C7CF80913E01882321F481E080934F
:100B20003E01C8CF089581E0BCDF809136019091ED
:100B30003701009711F1A0E0B0E208C0E091360162
:100B4000F0913701E20FF31FB083AF5F2A2F30E03F
:100B50008091060190E001976091070170E0869F07
:100B6000A001879F500D969F500D11242417350723
:100B70002CF310923901109238010895D4CF0895C2
:100B8000EF92FF92CF93DF93E82EE7017E01F92EDB
:100B9000E70101C089DF89918823E1F7DF91CF91D7
:100BA000FF90EF900895ECCF0895AAE0B0E0EAED51
:100BB000F5E045C59B01AC011AE0EAE0CE2ED12C50
:100BC000E12CF12C5E010894A11CB11C022FCA017A
:100BD000B901A701960109D51150F501E10FF11DE9
:100BE000005D922F990F892F880F880F890F081B9E
:100BF0000083211531054105510541F707C0F60174
:100C0000E10FF11D808150DF1F5F04C06E01089469
:100C1000C11CD11C1A3098F32A96EAE02CC5EF9239
:100C2000FF920F931F937B018C0197FF0AC01095D1
:100C30000095F094E094E11CF11C011D111D8DE262
:100C400033DFC801B701B1DF1F910F91FF90EF9023
:100C50000895E5CF0895A5E0B0E0E0E3F6E0F6C43E
:100C6000182F80E8898380EC8A8384E98B8384ED64
:100C70008C83FE01E60FF11D8181810F6D8311DFF1
:100C8000109339016D81609338012596E3E0FAC431
:100C9000E2CF0895FC011182108213821282158224
:100CA00014821682683068F489E290E09183808330
:100CB0008BE290E0938382838AE290E09583848341
:100CC00011C06E30C0F483E290E09183808385E2AE
:100CD00090E09383828384E290E09583848370E044
:100CE0006850704081E090E002C0880F991F6A95BB
:100CF000E2F7868308956531B8F486E290E0918347
:100D0000808388E290E09383828387E290E09583FA
:100D1000848370E06E50704081E090E002C0880FE4
:100D2000991F6A95E2F786830895FC01A481B58135
:100D30008681662321F09C91982B9C9308959C9129
:100D4000809589238C930895FC016F3F31F4A28133
:100D5000B3818C91968189270CC0A281B381868151
:100D6000662321F09C91982B9C9308959C918095EB
:100D700089238C930895A7E0B0E0E0ECF6E064C42A
:100D8000282FF62E8E010F5F1F4FC801622F82DFC2
:100D9000C8016F2DD9DFC80161E0C7DF2796E5E004
:100DA0006FC4E0EBF0E083EF8083808184BDE1EBF2
:100DB000F0E082E08083808185BDE4EBF0E010828A
:100DC0008081E3EBF0E08083808188BD88B587BDBA
:100DD00086E060E0D0DF85E060E0CDDF8BE060E0C2
:100DE000CADF83E060E0C7CF80913F01882321F410
:100DF00081E080933F01D5CF0895CF93DF93EC013D
:100E0000F3DFD7FF05C0D095C195DF4F81E001C06A
:100E100080E0CF3FD10519F014F0CFEFD0E0882368
:100E200019F018BCC7BD02C0C8BD17BCDF91CF9177
:100E30000895CF93DF93EC01D7DFD7FF05C0D0959E
:100E4000C195DF4F81E001C080E0CF3FD10519F0AF
:100E500014F0CFEFD0E0882329F01092B400C093B3
:100E6000B30004C0C093B4001092B300DF91CF91DF
:100E70000895CF93DF93EB01C0DFCE01DADFDF917E
:100E8000CF910895F6CF0895E1ECF0E080818F7D59
:100E900080830895282F30E0F901EE0FFF1F43E013
:100EA000220F331F4A95E1F7E20FF31FE05CFE4F7C
:100EB000408551854115510509F452C0282F30E075
:100EC000F901EE0FFF1FB3E0220F331FBA95E1F7D0
:100ED000E20FF31FE05CFE4F7281282F30E0F90132
:100EE000EE0FFF1F93E0220F331F9A95E1F7E20FF9
:100EF000F31FE05CFE4F9481791790F5282F30E0C6
:100F0000F901EE0FFF1FA3E0220F331FAA95E1F7AF
:100F1000E20FF31FE05CFE4F9281490F511DFA0171
:100F20006083282F30E0F901EE0FFF1F63E0220FEE
:100F3000331F6A95E1F7E20FF31FE05CFE4F9281E9
:100F40009F5F282F30E0F901EE0FFF1F43E0220FD3
:100F5000331F4A95E1F7E20FF31FE05CFE4F9283E7
:100F6000282F30E0F901EE0FFF1FA3E0220F331FFF
:100F7000AA95E1F7E20FF31FE05CFE4F4281282FB4
:100F800030E0F901EE0FFF1F63E0220F331F6A9577
:100F9000E1F7E20FF31FE05CFE4F9481491701F582
:100FA000282F30E0F901EE0FFF1F43E0220F331F1F
:100FB0004A95E1F7E20FF31FE05CFE4F958199231C
:100FC00079F0282F30E0F901EE0FFF1F83E0220FA8
:100FD000331F8A95E1F7E20FF31FE05CFE4F1282A8
:100FE00008951F93182F8091C1008F778093C100BF
:100FF000212F30E0F901EE0FFF1F43E0220F331FD6
:101000004A95E1F7E20FF31FE05CFE4F8085918582
:10101000009741F1212F30E0F901EE0FFF1F83E02F
:10102000220F331F8A95E1F7E20FF31FE05CFE4FBA
:101030009281212F30E0F901EE0FFF1FA3E0220F74
:10104000331FAA95E1F7E20FF31FE05CFE4F8481A6
:10105000981740F48091C00087FF04C06091C600DB
:10106000812F18DF212F30E0F901EE0FFF1F63E021
:10107000220F331F6A95E1F7E20FF31FE05CFE4F8A
:101080008081882329F48091C10080688093C10009
:101090001F9108959091C1009F779093C100A82F50
:1010A000B0E0FD01EE0FFF1F93E0AA0FBB1F9A9562
:1010B000E1F7EA0FFB1FE05CFE4F71876087682F46
:1010C00070E0FB01EE0FFF1F53E0660F771F5A958C
:1010D000E1F7E60FF71FE05CFE4F1282682F70E029
:1010E000FB01EE0FFF1F93E0660F771F9A95E1F764
:1010F000E60FF71FE05CFE4F4483482F50E0FA01F3
:10110000EE0FFF1FA3E0440F551FAA95E1F7E40F70
:10111000F51FE05CFE4F2583282F30E0F901EE0F2C
:10112000FF1F63E0220F331F6A95E1F7E20FF31F01
:10113000E05CFE4F8081882329F48091C1008068A3
:101140008093C100089520E0A5CF1F920F920FB6A3
:101150000F9211242F933F934F935F936F937F933D
:101160008F939F93AF93BF93EF93FF936091C600CC
:1011700080E090DEFF91EF91BF91AF919F918F91B1
:101180007F916F915F914F913F912F910F900FBE83
:101190000F901F901895282F30E0F901EE0FFF1FD8
:1011A00093E0220F331F9A95E1F7E20FF31FE05C03
:1011B000FE4F2681378121153105B9F1282F30E006
:1011C000F901EE0FFF1FA3E0220F331FAA95E1F7ED
:1011D000E20FF31FE05CFE4F4181282F30E0F90160
:1011E000EE0FFF1F63E0220F331F6A95E1F7E20F56
:1011F000F31FE05CFE4F93814917B8F4282F30E0CD
:10120000F901EE0FFF1F43E0220F331F4A95E1F76C
:10121000E20FF31FE05CFE4F8081882331F4809160
:10122000C10080628093C10008952ECE282F30E047
:10123000F901EE0FFF1F53E0220F331F5A95E1F71C
:10124000E20FF31FE05CFE4F9081992311F498E9BF
:1012500001C098E19093C1009EDF78940895EF92C9
:10126000FF920F931F937B018C0180E0DFDFC801A9
:10127000B70128EF3FEF4FEF5FEF94D16050734D10
:101280008E4C9E4FA8019701E4E0220F331F441FAC
:10129000551FEA95D1F7A9D13093C5002093C4001A
:1012A0001F910F91FF90EF900895D9CF0895282FA7
:1012B00030E0F901EE0FFF1F73E0220F331F7A9524
:1012C000E1F7E20FF31FE05CFE4F468157814115C5
:1012D000510509F458C0282F30E0F901EE0FFF1F27
:1012E00093E0220F331F9A95E1F7E20FF31FE05CC2
:1012F000FE4F6181282F30E0F901EE0FFF1FA3E0C0
:10130000220F331FAA95E1F7E20FF31FE05CFE4FB7
:1013100093816917C0F59091C00095FF34C0282FC4
:1013200030E0F901EE0FFF1F63E0220F331F6A95D3
:10133000E1F7E20FF31FE05CFE4F9181490F511D71
:10134000FA0190819093C600282F30E0F901EE0F4A
:10135000FF1F93E0220F331F9A95E1F7E20FF31F6F
:10136000E05CFE4F91819F5F282F30E0F901EE0F86
:10137000FF1FA3E0220F331FAA95E1F7E20FF31F2F
:10138000E05CFE4F918307CFA1E0B0E0E9ECF9E02B
:101390005EC1898379DD89818ADF2196E2E073C1AC
:1013A00080E0F2DF80E01DCE8F929F92AF92BF92DD
:1013B000DF92EF92FF920F931F93D82E7901C3DE35
:1013C000EFD04B015C0100E010E0EADF8D2D90E0F2
:1013D000FC01EE0FFF1F43E0880F991F4A95E1F7CC
:1013E000E80FF91FE05CFE4F22818D2D90E0FC019B
:1013F000EE0FFF1FB3E0880F991FBA95E1F7E80FD2
:10140000F91FE05CFE4F8481281761F0C9D068198C
:1014100079098A099B096E157F0580079107A8F253
:1014200081E001C080E01F910F91FF90EF90DF906D
:10143000BF90AF909F908F900895FC01962F9A01D6
:1014400080E0BF01492FB0CFF8CF08951F920F92CF
:101450000FB60F9211242F933F934F935F936F9387
:101460007F938F939F93AF93BF93EF93FF9380E00E
:101470001EDFFF91EF91BF91AF919F918F917F916F
:101480006F915F914F913F912F910F900FBE0F90F1
:101490001F9018956F9364E06A95F1F76F9101972B
:1014A000C9F708952F928F939F932FB680914B0188
:1014B00090914C01019680934B0190934C0190E0E8
:1014C00080914D01891F80934D01909153019C5F44
:1014D000909353018091520180519742C0F09093B4
:1014E00053018093520180914E0190914F010196DA
:1014F00080934E0190934F0190E080915001891F9D
:101500008093500180915101891F809351012FBE1A
:101510009F918F912F901895CF93DF93EC0104C08A
:1015200088EE93E0B7DF21972097D1F7DF91CF9135
:101530000895F2CF0895E0E7F0E080818E7F808308
:10154000A0EBB0E08C9183608C93A1EBB0E08C9128
:10155000807F8C938C9182608C93B89A808181601B
:1015600080837894089580915401882321F481E048
:1015700080935401E0CF0895F6DFE0E7F0E080814A
:101580008E7F808320914E0130914F014091500118
:1015900050915101808181608083B901CA01089511
:1015A000EBCF0895DB018F939F937ED0BF91AF91D6
:1015B000A29F800D911DA39F900DB29F900D1124AD
:1015C0000895AA1BBB1B51E107C0AA1FBB1FA6178A
:1015D000B70710F0A61BB70B881F991F5A95A9F7DC
:1015E00080959095BC01CD010895A1E21A2EAA1B09
:1015F000BB1BFD010DC0AA1FBB1FEE1FFF1FA217C3
:10160000B307E407F50720F0A21BB30BE40BF50BBF
:10161000661F771F881F991F1A9469F76095709548
:10162000809590959B01AC01BD01CF0108952F924B
:101630003F924F925F926F927F928F929F92AF9262
:10164000BF92CF92DF92EF92FF920F931F93CF93AF
:10165000DF93CDB7DEB7CA1BDB0B0FB6F894DEBF46
:101660000FBECDBF09942A88398848885F846E846C
:101670007D848C849B84AA84B984C884DF80EE80B6
:10168000FD800C811B81AA81B981CE0FD11D0FB6BF
:10169000F894DEBF0FBECDBFED010895EE0FFF1F22
:1016A0000590F491E02D099409D0A59F900DB49F69
:1016B000900DA49F800D911D11240895A29FB0014B
:1016C000B39FC001A39F700D811D1124911DB29F76
:0E16D000700D811D1124911D0895F894FFCF17
:1016DE0001320020881302080000590120006D75A8
:1016EE0067007A6F006E6F726D616C00617A656C67
:1016FE006572002049747A616C69202000206E6149
:06170E007A617A752000EB
:00000001FF
